{
  "_format": "hh-sol-artifact-1",
  "contractName": "FeedbackFactory",
  "sourceName": "contracts/Feedback.sol",
  "abi": [
    {
      "inputs": [
        {
          "internalType": "address",
          "name": "_owner",
          "type": "address"
        },
        {
          "internalType": "uint256",
          "name": "_tokenID",
          "type": "uint256"
        },
        {
          "internalType": "uint256",
          "name": "_rewardAmount",
          "type": "uint256"
        }
      ],
      "name": "createFeedbackApp",
      "outputs": [],
      "stateMutability": "nonpayable",
      "type": "function"
    },
    {
      "inputs": [
        {
          "internalType": "uint256",
          "name": "",
          "type": "uint256"
        }
      ],
      "name": "feedbackArray",
      "outputs": [
        {
          "internalType": "contract Feedbacks",
          "name": "",
          "type": "address"
        }
      ],
      "stateMutability": "view",
      "type": "function"
    },
    {
      "inputs": [
        {
          "internalType": "uint256",
          "name": "_tokenID",
          "type": "uint256"
        }
      ],
      "name": "getContractAddress",
      "outputs": [
        {
          "internalType": "address",
          "name": "",
          "type": "address"
        }
      ],
      "stateMutability": "view",
      "type": "function"
    },
    {
      "inputs": [],
      "name": "newFeedbackApp",
      "outputs": [
        {
          "internalType": "contract Feedbacks",
          "name": "",
          "type": "address"
        }
      ],
      "stateMutability": "view",
      "type": "function"
    }
  ],
  "bytecode": "0x608060405234801561001057600080fd5b50610cce806100206000396000f3fe608060405234801561001057600080fd5b506004361061004c5760003560e01c806362ff334d146100515780636ac4203414610066578063aefa7d9814610095578063dbf5f1f1146100be575b600080fd5b61006461005f3660046101bf565b6100d1565b005b600054610079906001600160a01b031681565b6040516001600160a01b03909116815260200160405180910390f35b6100796100a3366004610200565b6000908152600260205260409020546001600160a01b031690565b6100796100cc366004610200565b610188565b82816040516100df906101b2565b6001600160a01b0390921682526020820152604001604051809103906000f080158015610110573d6000803e3d6000fd5b50600080546001600160a01b039283166001600160a01b031991821681178355600180548082019091557fb10e2d527612073b26eecdfd717e6a320cf44b4afac2b0732d9fcbe2b7fa0cf601805483169091179055815494825260026020526040909120805490911693909116929092179091555050565b6001818154811061019857600080fd5b6000918252602090912001546001600160a01b0316905081565b610a7f8061021a83390190565b6000806000606084860312156101d457600080fd5b83356001600160a01b03811681146101eb57600080fd5b95602085013595506040909401359392505050565b60006020828403121561021257600080fd5b503591905056fe608060405234801561001057600080fd5b50604051610a7f380380610a7f83398101604081905261002f91610105565b600180546001600160a01b0319166001600160a01b03841617905560028190556040805180820190915260128152712a34329031b7b73a3930b1ba1034b99037b760711b60208083019190915261009091903090610097811b61051f17901c565b50506101a5565b6100e082826040516024016100ad92919061013f565b60408051601f198184030181529190526020810180516001600160e01b0390811663319af33360e01b179091526100e416565b5050565b80516a636f6e736f6c652e6c6f67602083016000808483855afa5050505050565b6000806040838503121561011857600080fd5b82516001600160a01b038116811461012f57600080fd5b6020939093015192949293505050565b604081526000835180604084015260005b8181101561016d5760208187018101516060868401015201610150565b8181111561017f576000606083860101525b506001600160a01b0393909316602083015250601f91909101601f191601606001919050565b6108cb806101b46000396000f3fe6080604052600436106100405760003560e01c80631bbb6e58146100495780633519a2f8146100815780635dba1e0614610094578063c0b85f50146100b457005b3661004757005b005b34801561005557600080fd5b50610069610064366004610622565b6100d6565b60405161007893929190610688565b60405180910390f35b61004761008f366004610622565b6101a2565b3480156100a057600080fd5b506100476100af3660046106bb565b6101fc565b3480156100c057600080fd5b506100c961040b565b6040516100789190610733565b600081815481106100e657600080fd5b9060005260206000209060030201600091509050806000018054610109906107bd565b80601f0160208091040260200160405190810160405280929190818152602001828054610135906107bd565b80156101825780601f1061015757610100808354040283529160200191610182565b820191906000526020600020905b81548152906001019060200180831161016557829003601f168201915b5050505060018301546002909301549192916001600160a01b0316905083565b803410156101f75760405162461bcd60e51b815260206004820152601960248201527f4e6f7420656e6f7567682066756e64732070726f76696465640000000000000060448201526064015b60405180910390fd5b600355565b6000600354116102435760405162461bcd60e51b8152602060048201526012602482015271105b1b081d1a19481cd9595908195b99195960721b60448201526064016101ee565b6040805160806020601f860181900402820181019092526060810184815260009282919087908790819085018382808284376000920182905250938552505050602080830186905233604090930192909252805460018101825590805282518051939450849360039092027f290decd9548b62a8d60345a988386fc84ba6bc95484008f6362f93160ef3e56301926102e092849290910190610589565b506020820151600182810191909155604092830151600292830180546001600160a01b0319166001600160a01b039283161790559054915492516000939290911691908381818185875af1925050503d806000811461035b576040519150601f19603f3d011682016040523d82523d6000602084013e610360565b606091505b50509050806103aa5760405162461bcd60e51b8152602060048201526016602482015275151a19481d1c985b9cd858dd1a5bdb8819985a5b195960521b60448201526064016101ee565b600254600360008282546103be91906107f8565b90915550506002546040517f2809a148ae4f0752b4a7b633fe14933a37f6b6ccfcce9ae91fc1184e6fcee495916103fc91889188918891339161081d565b60405180910390a15050505050565b60606000805480602002602001604051908101604052809291908181526020016000905b828210156105165783829060005260206000209060030201604051806060016040529081600082018054610462906107bd565b80601f016020809104026020016040519081016040528092919081815260200182805461048e906107bd565b80156104db5780601f106104b0576101008083540402835291602001916104db565b820191906000526020600020905b8154815290600101906020018083116104be57829003601f168201915b50505091835250506001828101546020808401919091526002909301546001600160a01b03166040909201919091529183529201910161042f565b50505050905090565b610564828260405160240161053592919061086b565b60408051601f198184030181529190526020810180516001600160e01b031663319af33360e01b179052610568565b5050565b80516a636f6e736f6c652e6c6f67602083016000808483855afa5050505050565b828054610595906107bd565b90600052602060002090601f0160209004810192826105b757600085556105fd565b82601f106105d057805160ff19168380011785556105fd565b828001600101855582156105fd579182015b828111156105fd5782518255916020019190600101906105e2565b5061060992915061060d565b5090565b5b80821115610609576000815560010161060e565b60006020828403121561063457600080fd5b5035919050565b6000815180845260005b8181101561066157602081850181015186830182015201610645565b81811115610673576000602083870101525b50601f01601f19169290920160200192915050565b60608152600061069b606083018661063b565b6020830194909452506001600160a01b0391909116604090910152919050565b6000806000604084860312156106d057600080fd5b833567ffffffffffffffff808211156106e857600080fd5b818601915086601f8301126106fc57600080fd5b81358181111561070b57600080fd5b87602082850101111561071d57600080fd5b6020928301989097509590910135949350505050565b60006020808301818452808551808352604092508286019150828160051b87010184880160005b838110156107af57603f198984030185528151606081518186526107808287018261063b565b838b0151878c0152928901516001600160a01b031695890195909552509487019492509086019060010161075a565b509098975050505050505050565b600181811c908216806107d157607f821691505b602082108114156107f257634e487b7160e01b600052602260045260246000fd5b50919050565b60008282101561081857634e487b7160e01b600052601160045260246000fd5b500390565b60808152846080820152848660a0830137600060a086830181019190915260208201949094526001600160a01b039290921660408301526060820152601f909201601f191690910101919050565b60408152600061087e604083018561063b565b905060018060a01b0383166020830152939250505056fea26469706673582212207914f8ca47a7599a30f2b85afc898adecd92feed10ca5ae2e7b5f44536e23f2264736f6c63430008090033a26469706673582212200f527e9e173736c411841a4aec6cdd464bcc312fb0d734018112076ccb487a1764736f6c63430008090033",
  "linkReferences": {},
  "deployedLinkReferences": {}
}